{
  "_format": "hh-sol-artifact-1",
  "contractName": "PhoneCoin",
  "sourceName": "contracts/PhoneCoin.sol",
  "abi": [
    {
      "inputs": [],
      "stateMutability": "nonpayable",
      "type": "constructor"
    },
    {
      "inputs": [
        {
          "internalType": "address",
          "name": "spender",
          "type": "address"
        },
        {
          "internalType": "uint256",
          "name": "allowance",
          "type": "uint256"
        },
        {
          "internalType": "uint256",
          "name": "needed",
          "type": "uint256"
        }
      ],
      "name": "ERC20InsufficientAllowance",
      "type": "error"
    },
    {
      "inputs": [
        {
          "internalType": "address",
          "name": "sender",
          "type": "address"
        },
        {
          "internalType": "uint256",
          "name": "balance",
          "type": "uint256"
        },
        {
          "internalType": "uint256",
          "name": "needed",
          "type": "uint256"
        }
      ],
      "name": "ERC20InsufficientBalance",
      "type": "error"
    },
    {
      "inputs": [
        {
          "internalType": "address",
          "name": "approver",
          "type": "address"
        }
      ],
      "name": "ERC20InvalidApprover",
      "type": "error"
    },
    {
      "inputs": [
        {
          "internalType": "address",
          "name": "receiver",
          "type": "address"
        }
      ],
      "name": "ERC20InvalidReceiver",
      "type": "error"
    },
    {
      "inputs": [
        {
          "internalType": "address",
          "name": "sender",
          "type": "address"
        }
      ],
      "name": "ERC20InvalidSender",
      "type": "error"
    },
    {
      "inputs": [
        {
          "internalType": "address",
          "name": "spender",
          "type": "address"
        }
      ],
      "name": "ERC20InvalidSpender",
      "type": "error"
    },
    {
      "inputs": [
        {
          "internalType": "address",
          "name": "owner",
          "type": "address"
        }
      ],
      "name": "OwnableInvalidOwner",
      "type": "error"
    },
    {
      "inputs": [
        {
          "internalType": "address",
          "name": "account",
          "type": "address"
        }
      ],
      "name": "OwnableUnauthorizedAccount",
      "type": "error"
    },
    {
      "anonymous": false,
      "inputs": [
        {
          "indexed": true,
          "internalType": "address",
          "name": "owner",
          "type": "address"
        },
        {
          "indexed": true,
          "internalType": "address",
          "name": "spender",
          "type": "address"
        },
        {
          "indexed": false,
          "internalType": "uint256",
          "name": "value",
          "type": "uint256"
        }
      ],
      "name": "Approval",
      "type": "event"
    },
    {
      "anonymous": false,
      "inputs": [
        {
          "indexed": true,
          "internalType": "address",
          "name": "user",
          "type": "address"
        },
        {
          "indexed": false,
          "internalType": "uint256",
          "name": "ethAmount",
          "type": "uint256"
        },
        {
          "indexed": false,
          "internalType": "uint256",
          "name": "tokenAmount",
          "type": "uint256"
        }
      ],
      "name": "Deposit",
      "type": "event"
    },
    {
      "anonymous": false,
      "inputs": [
        {
          "indexed": true,
          "internalType": "address",
          "name": "previousOwner",
          "type": "address"
        },
        {
          "indexed": true,
          "internalType": "address",
          "name": "newOwner",
          "type": "address"
        }
      ],
      "name": "OwnershipTransferred",
      "type": "event"
    },
    {
      "anonymous": false,
      "inputs": [
        {
          "indexed": true,
          "internalType": "address",
          "name": "from",
          "type": "address"
        },
        {
          "indexed": true,
          "internalType": "address",
          "name": "to",
          "type": "address"
        },
        {
          "indexed": false,
          "internalType": "uint256",
          "name": "value",
          "type": "uint256"
        }
      ],
      "name": "Transfer",
      "type": "event"
    },
    {
      "anonymous": false,
      "inputs": [
        {
          "indexed": true,
          "internalType": "address",
          "name": "user",
          "type": "address"
        },
        {
          "indexed": false,
          "internalType": "uint256",
          "name": "tokenAmount",
          "type": "uint256"
        },
        {
          "indexed": false,
          "internalType": "uint256",
          "name": "ethAmount",
          "type": "uint256"
        }
      ],
      "name": "Withdrawal",
      "type": "event"
    },
    {
      "inputs": [],
      "name": "RATE",
      "outputs": [
        {
          "internalType": "uint256",
          "name": "",
          "type": "uint256"
        }
      ],
      "stateMutability": "view",
      "type": "function"
    },
    {
      "inputs": [
        {
          "internalType": "address",
          "name": "owner",
          "type": "address"
        },
        {
          "internalType": "address",
          "name": "spender",
          "type": "address"
        }
      ],
      "name": "allowance",
      "outputs": [
        {
          "internalType": "uint256",
          "name": "",
          "type": "uint256"
        }
      ],
      "stateMutability": "view",
      "type": "function"
    },
    {
      "inputs": [
        {
          "internalType": "address",
          "name": "spender",
          "type": "address"
        },
        {
          "internalType": "uint256",
          "name": "value",
          "type": "uint256"
        }
      ],
      "name": "approve",
      "outputs": [
        {
          "internalType": "bool",
          "name": "",
          "type": "bool"
        }
      ],
      "stateMutability": "nonpayable",
      "type": "function"
    },
    {
      "inputs": [
        {
          "internalType": "address",
          "name": "account",
          "type": "address"
        }
      ],
      "name": "balanceOf",
      "outputs": [
        {
          "internalType": "uint256",
          "name": "",
          "type": "uint256"
        }
      ],
      "stateMutability": "view",
      "type": "function"
    },
    {
      "inputs": [],
      "name": "decimals",
      "outputs": [
        {
          "internalType": "uint8",
          "name": "",
          "type": "uint8"
        }
      ],
      "stateMutability": "view",
      "type": "function"
    },
    {
      "inputs": [],
      "name": "deposit",
      "outputs": [],
      "stateMutability": "payable",
      "type": "function"
    },
    {
      "inputs": [],
      "name": "name",
      "outputs": [
        {
          "internalType": "string",
          "name": "",
          "type": "string"
        }
      ],
      "stateMutability": "view",
      "type": "function"
    },
    {
      "inputs": [],
      "name": "owner",
      "outputs": [
        {
          "internalType": "address",
          "name": "",
          "type": "address"
        }
      ],
      "stateMutability": "view",
      "type": "function"
    },
    {
      "inputs": [],
      "name": "renounceOwnership",
      "outputs": [],
      "stateMutability": "nonpayable",
      "type": "function"
    },
    {
      "inputs": [],
      "name": "symbol",
      "outputs": [
        {
          "internalType": "string",
          "name": "",
          "type": "string"
        }
      ],
      "stateMutability": "view",
      "type": "function"
    },
    {
      "inputs": [],
      "name": "totalSupply",
      "outputs": [
        {
          "internalType": "uint256",
          "name": "",
          "type": "uint256"
        }
      ],
      "stateMutability": "view",
      "type": "function"
    },
    {
      "inputs": [
        {
          "internalType": "address",
          "name": "to",
          "type": "address"
        },
        {
          "internalType": "uint256",
          "name": "value",
          "type": "uint256"
        }
      ],
      "name": "transfer",
      "outputs": [
        {
          "internalType": "bool",
          "name": "",
          "type": "bool"
        }
      ],
      "stateMutability": "nonpayable",
      "type": "function"
    },
    {
      "inputs": [
        {
          "internalType": "address",
          "name": "from",
          "type": "address"
        },
        {
          "internalType": "address",
          "name": "to",
          "type": "address"
        },
        {
          "internalType": "uint256",
          "name": "value",
          "type": "uint256"
        }
      ],
      "name": "transferFrom",
      "outputs": [
        {
          "internalType": "bool",
          "name": "",
          "type": "bool"
        }
      ],
      "stateMutability": "nonpayable",
      "type": "function"
    },
    {
      "inputs": [
        {
          "internalType": "address",
          "name": "newOwner",
          "type": "address"
        }
      ],
      "name": "transferOwnership",
      "outputs": [],
      "stateMutability": "nonpayable",
      "type": "function"
    },
    {
      "inputs": [
        {
          "internalType": "uint256",
          "name": "tokens",
          "type": "uint256"
        }
      ],
      "name": "withdraw",
      "outputs": [],
      "stateMutability": "nonpayable",
      "type": "function"
    }
  ],
  "bytecode": "0x60806040523480156200001157600080fd5b503360405180604001604052806009815260200168283437b732a1b7b4b760b91b8152506040518060400160405280600381526020016250484360e81b8152508160039081620000629190620001ae565b506004620000718282620001ae565b5050506001600160a01b038116620000a357604051631e4fbdf760e01b81526000600482015260240160405180910390fd5b620000ae81620000b5565b506200027a565b600580546001600160a01b038381166001600160a01b0319831681179093556040519116919082907f8be0079c531659141344cd1fd0a4f28419497f9722a3daafe3b4186f6b6457e090600090a35050565b634e487b7160e01b600052604160045260246000fd5b600181811c908216806200013257607f821691505b6020821081036200015357634e487b7160e01b600052602260045260246000fd5b50919050565b601f821115620001a9576000816000526020600020601f850160051c81016020861015620001845750805b601f850160051c820191505b81811015620001a55782815560010162000190565b5050505b505050565b81516001600160401b03811115620001ca57620001ca62000107565b620001e281620001db84546200011d565b8462000159565b602080601f8311600181146200021a5760008415620002015750858301515b600019600386901b1c1916600185901b178555620001a5565b600085815260208120601f198616915b828110156200024b578886015182559484019460019091019084016200022a565b50858210156200026a5787850151600019600388901b60f8161c191681555b5050505050600190811b01905550565b610f14806200028a6000396000f3fe6080604052600436106100e85760003560e01c806370a082311161008a578063a9059cbb11610059578063a9059cbb1461027c578063d0e30db01461029c578063dd62ed3e146102a4578063f2fde38b146102f757600080fd5b806370a08231146101da578063715018a61461021d5780638da5cb5b1461023257806395d89b411461026757600080fd5b806323b872dd116100c657806323b872dd146101675780632e1a7d4d14610187578063313ce567146101a9578063664e9704146101c557600080fd5b806306fdde03146100ed578063095ea7b31461011857806318160ddd14610148575b600080fd5b3480156100f957600080fd5b50610102610317565b60405161010f9190610c8d565b60405180910390f35b34801561012457600080fd5b50610138610133366004610d23565b6103a9565b604051901515815260200161010f565b34801561015457600080fd5b506002545b60405190815260200161010f565b34801561017357600080fd5b50610138610182366004610d4d565b6103c3565b34801561019357600080fd5b506101a76101a2366004610d89565b6103e7565b005b3480156101b557600080fd5b506040516012815260200161010f565b3480156101d157600080fd5b50610159600181565b3480156101e657600080fd5b506101596101f5366004610da2565b73ffffffffffffffffffffffffffffffffffffffff1660009081526020819052604090205490565b34801561022957600080fd5b506101a7610511565b34801561023e57600080fd5b5060055460405173ffffffffffffffffffffffffffffffffffffffff909116815260200161010f565b34801561027357600080fd5b50610102610525565b34801561028857600080fd5b50610138610297366004610d23565b610534565b6101a7610542565b3480156102b057600080fd5b506101596102bf366004610dc4565b73ffffffffffffffffffffffffffffffffffffffff918216600090815260016020908152604080832093909416825291909152205490565b34801561030357600080fd5b506101a7610312366004610da2565b610629565b60606003805461032690610df7565b80601f016020809104026020016040519081016040528092919081815260200182805461035290610df7565b801561039f5780601f106103745761010080835404028352916020019161039f565b820191906000526020600020905b81548152906001019060200180831161038257829003601f168201915b5050505050905090565b6000336103b781858561068d565b60019150505b92915050565b6000336103d185828561069a565b6103dc858585610769565b506001949350505050565b3360009081526020819052604090205481111561048b576040517f08c379a000000000000000000000000000000000000000000000000000000000815260206004820152602660248201527f496e73756666696369656e742062616c616e636520746f20776974686472617760448201527f2066726f6d2e000000000000000000000000000000000000000000000000000060648201526084015b60405180910390fd5b6000610498600183610e79565b90506104a43383610814565b604080518381526020810183905233917fdf273cb619d95419a9cd0ec88123a0538c85064229baa6363788f743fff90deb910160405180910390a2604051339082156108fc029083906000818181858888f1935050505015801561050c573d6000803e3d6000fd5b505050565b610519610874565b61052360006108c7565b565b60606004805461032690610df7565b6000336103b7818585610769565b600034116105d2576040517f08c379a000000000000000000000000000000000000000000000000000000000815260206004820152602660248201527f4465706f73697420616d6f756e74206d7573742062652067726561746572207460448201527f68616e20302e00000000000000000000000000000000000000000000000000006064820152608401610482565b60006105df600134610eb4565b90506105eb338261093e565b604080513481526020810183905233917f90890809c654f11d6e72a28fa60149770a0d11ec6c92319d6ceb2bb0a4ea1a15910160405180910390a250565b610631610874565b73ffffffffffffffffffffffffffffffffffffffff8116610681576040517f1e4fbdf700000000000000000000000000000000000000000000000000000000815260006004820152602401610482565b61068a816108c7565b50565b61050c838383600161099a565b73ffffffffffffffffffffffffffffffffffffffff8381166000908152600160209081526040808320938616835292905220547fffffffffffffffffffffffffffffffffffffffffffffffffffffffffffffffff81146107635781811015610754576040517ffb8f41b200000000000000000000000000000000000000000000000000000000815273ffffffffffffffffffffffffffffffffffffffff841660048201526024810182905260448101839052606401610482565b6107638484848403600061099a565b50505050565b73ffffffffffffffffffffffffffffffffffffffff83166107b9576040517f96c6fd1e00000000000000000000000000000000000000000000000000000000815260006004820152602401610482565b73ffffffffffffffffffffffffffffffffffffffff8216610809576040517fec442f0500000000000000000000000000000000000000000000000000000000815260006004820152602401610482565b61050c838383610ae2565b73ffffffffffffffffffffffffffffffffffffffff8216610864576040517f96c6fd1e00000000000000000000000000000000000000000000000000000000815260006004820152602401610482565b61087082600083610ae2565b5050565b60055473ffffffffffffffffffffffffffffffffffffffff163314610523576040517f118cdaa7000000000000000000000000000000000000000000000000000000008152336004820152602401610482565b6005805473ffffffffffffffffffffffffffffffffffffffff8381167fffffffffffffffffffffffff0000000000000000000000000000000000000000831681179093556040519116919082907f8be0079c531659141344cd1fd0a4f28419497f9722a3daafe3b4186f6b6457e090600090a35050565b73ffffffffffffffffffffffffffffffffffffffff821661098e576040517fec442f0500000000000000000000000000000000000000000000000000000000815260006004820152602401610482565b61087060008383610ae2565b73ffffffffffffffffffffffffffffffffffffffff84166109ea576040517fe602df0500000000000000000000000000000000000000000000000000000000815260006004820152602401610482565b73ffffffffffffffffffffffffffffffffffffffff8316610a3a576040517f94280d6200000000000000000000000000000000000000000000000000000000815260006004820152602401610482565b73ffffffffffffffffffffffffffffffffffffffff80851660009081526001602090815260408083209387168352929052208290558015610763578273ffffffffffffffffffffffffffffffffffffffff168473ffffffffffffffffffffffffffffffffffffffff167f8c5be1e5ebec7d5bd14f71427d1e84f3dd0314c0f7b2291e5b200ac8c7c3b92584604051610ad491815260200190565b60405180910390a350505050565b73ffffffffffffffffffffffffffffffffffffffff8316610b1a578060026000828254610b0f9190610ecb565b90915550610bcc9050565b73ffffffffffffffffffffffffffffffffffffffff831660009081526020819052604090205481811015610ba0576040517fe450d38c00000000000000000000000000000000000000000000000000000000815273ffffffffffffffffffffffffffffffffffffffff851660048201526024810182905260448101839052606401610482565b73ffffffffffffffffffffffffffffffffffffffff841660009081526020819052604090209082900390555b73ffffffffffffffffffffffffffffffffffffffff8216610bf557600280548290039055610c21565b73ffffffffffffffffffffffffffffffffffffffff821660009081526020819052604090208054820190555b8173ffffffffffffffffffffffffffffffffffffffff168373ffffffffffffffffffffffffffffffffffffffff167fddf252ad1be2c89b69c2b068fc378daa952ba7f163c4a11628f55a4df523b3ef83604051610c8091815260200190565b60405180910390a3505050565b60006020808352835180602085015260005b81811015610cbb57858101830151858201604001528201610c9f565b5060006040828601015260407fffffffffffffffffffffffffffffffffffffffffffffffffffffffffffffffe0601f8301168501019250505092915050565b803573ffffffffffffffffffffffffffffffffffffffff81168114610d1e57600080fd5b919050565b60008060408385031215610d3657600080fd5b610d3f83610cfa565b946020939093013593505050565b600080600060608486031215610d6257600080fd5b610d6b84610cfa565b9250610d7960208501610cfa565b9150604084013590509250925092565b600060208284031215610d9b57600080fd5b5035919050565b600060208284031215610db457600080fd5b610dbd82610cfa565b9392505050565b60008060408385031215610dd757600080fd5b610de083610cfa565b9150610dee60208401610cfa565b90509250929050565b600181811c90821680610e0b57607f821691505b602082108103610e44577f4e487b7100000000000000000000000000000000000000000000000000000000600052602260045260246000fd5b50919050565b7f4e487b7100000000000000000000000000000000000000000000000000000000600052601160045260246000fd5b600082610eaf577f4e487b7100000000000000000000000000000000000000000000000000000000600052601260045260246000fd5b500490565b80820281158282048414176103bd576103bd610e4a565b808201808211156103bd576103bd610e4a56fea26469706673582212204d72c238a83fe877a42a802ec1c238505b1bb9899d9256a6092ab8f58035a55464736f6c63430008180033",
  "linkReferences": {},
  "deployedLinkReferences": {}
}