{
  "_format": "hh-sol-artifact-1",
  "contractName": "PhoneNft",
  "sourceName": "contracts/PhoneNft.sol",
  "abi": [
    {
      "inputs": [],
      "stateMutability": "nonpayable",
      "type": "constructor"
    },
    {
      "inputs": [],
      "name": "ERC721EnumerableForbiddenBatchMint",
      "type": "error"
    },
    {
      "inputs": [
        {
          "internalType": "address",
          "name": "sender",
          "type": "address"
        },
        {
          "internalType": "uint256",
          "name": "tokenId",
          "type": "uint256"
        },
        {
          "internalType": "address",
          "name": "owner",
          "type": "address"
        }
      ],
      "name": "ERC721IncorrectOwner",
      "type": "error"
    },
    {
      "inputs": [
        {
          "internalType": "address",
          "name": "operator",
          "type": "address"
        },
        {
          "internalType": "uint256",
          "name": "tokenId",
          "type": "uint256"
        }
      ],
      "name": "ERC721InsufficientApproval",
      "type": "error"
    },
    {
      "inputs": [
        {
          "internalType": "address",
          "name": "approver",
          "type": "address"
        }
      ],
      "name": "ERC721InvalidApprover",
      "type": "error"
    },
    {
      "inputs": [
        {
          "internalType": "address",
          "name": "operator",
          "type": "address"
        }
      ],
      "name": "ERC721InvalidOperator",
      "type": "error"
    },
    {
      "inputs": [
        {
          "internalType": "address",
          "name": "owner",
          "type": "address"
        }
      ],
      "name": "ERC721InvalidOwner",
      "type": "error"
    },
    {
      "inputs": [
        {
          "internalType": "address",
          "name": "receiver",
          "type": "address"
        }
      ],
      "name": "ERC721InvalidReceiver",
      "type": "error"
    },
    {
      "inputs": [
        {
          "internalType": "address",
          "name": "sender",
          "type": "address"
        }
      ],
      "name": "ERC721InvalidSender",
      "type": "error"
    },
    {
      "inputs": [
        {
          "internalType": "uint256",
          "name": "tokenId",
          "type": "uint256"
        }
      ],
      "name": "ERC721NonexistentToken",
      "type": "error"
    },
    {
      "inputs": [
        {
          "internalType": "address",
          "name": "owner",
          "type": "address"
        },
        {
          "internalType": "uint256",
          "name": "index",
          "type": "uint256"
        }
      ],
      "name": "ERC721OutOfBoundsIndex",
      "type": "error"
    },
    {
      "inputs": [
        {
          "internalType": "address",
          "name": "owner",
          "type": "address"
        }
      ],
      "name": "OwnableInvalidOwner",
      "type": "error"
    },
    {
      "inputs": [
        {
          "internalType": "address",
          "name": "account",
          "type": "address"
        }
      ],
      "name": "OwnableUnauthorizedAccount",
      "type": "error"
    },
    {
      "anonymous": false,
      "inputs": [
        {
          "indexed": true,
          "internalType": "address",
          "name": "owner",
          "type": "address"
        },
        {
          "indexed": true,
          "internalType": "address",
          "name": "approved",
          "type": "address"
        },
        {
          "indexed": true,
          "internalType": "uint256",
          "name": "tokenId",
          "type": "uint256"
        }
      ],
      "name": "Approval",
      "type": "event"
    },
    {
      "anonymous": false,
      "inputs": [
        {
          "indexed": true,
          "internalType": "address",
          "name": "owner",
          "type": "address"
        },
        {
          "indexed": true,
          "internalType": "address",
          "name": "operator",
          "type": "address"
        },
        {
          "indexed": false,
          "internalType": "bool",
          "name": "approved",
          "type": "bool"
        }
      ],
      "name": "ApprovalForAll",
      "type": "event"
    },
    {
      "anonymous": false,
      "inputs": [
        {
          "indexed": false,
          "internalType": "uint256",
          "name": "_fromTokenId",
          "type": "uint256"
        },
        {
          "indexed": false,
          "internalType": "uint256",
          "name": "_toTokenId",
          "type": "uint256"
        }
      ],
      "name": "BatchMetadataUpdate",
      "type": "event"
    },
    {
      "anonymous": false,
      "inputs": [
        {
          "indexed": false,
          "internalType": "uint256",
          "name": "_tokenId",
          "type": "uint256"
        }
      ],
      "name": "MetadataUpdate",
      "type": "event"
    },
    {
      "anonymous": false,
      "inputs": [
        {
          "indexed": true,
          "internalType": "address",
          "name": "owner",
          "type": "address"
        },
        {
          "indexed": true,
          "internalType": "uint256",
          "name": "tokenId",
          "type": "uint256"
        }
      ],
      "name": "Minted",
      "type": "event"
    },
    {
      "anonymous": false,
      "inputs": [
        {
          "indexed": true,
          "internalType": "address",
          "name": "previousOwner",
          "type": "address"
        },
        {
          "indexed": true,
          "internalType": "address",
          "name": "newOwner",
          "type": "address"
        }
      ],
      "name": "OwnershipTransferred",
      "type": "event"
    },
    {
      "anonymous": false,
      "inputs": [
        {
          "indexed": true,
          "internalType": "address",
          "name": "from",
          "type": "address"
        },
        {
          "indexed": true,
          "internalType": "address",
          "name": "to",
          "type": "address"
        },
        {
          "indexed": true,
          "internalType": "uint256",
          "name": "tokenId",
          "type": "uint256"
        }
      ],
      "name": "Transfer",
      "type": "event"
    },
    {
      "inputs": [
        {
          "internalType": "address",
          "name": "to",
          "type": "address"
        },
        {
          "internalType": "uint256",
          "name": "tokenId",
          "type": "uint256"
        }
      ],
      "name": "approve",
      "outputs": [],
      "stateMutability": "nonpayable",
      "type": "function"
    },
    {
      "inputs": [
        {
          "internalType": "address",
          "name": "owner",
          "type": "address"
        }
      ],
      "name": "balanceOf",
      "outputs": [
        {
          "internalType": "uint256",
          "name": "",
          "type": "uint256"
        }
      ],
      "stateMutability": "view",
      "type": "function"
    },
    {
      "inputs": [
        {
          "internalType": "uint256",
          "name": "tokenId",
          "type": "uint256"
        }
      ],
      "name": "getApproved",
      "outputs": [
        {
          "internalType": "address",
          "name": "",
          "type": "address"
        }
      ],
      "stateMutability": "view",
      "type": "function"
    },
    {
      "inputs": [
        {
          "internalType": "address",
          "name": "owner",
          "type": "address"
        }
      ],
      "name": "getPhonesOwned",
      "outputs": [
        {
          "internalType": "uint256[]",
          "name": "",
          "type": "uint256[]"
        }
      ],
      "stateMutability": "view",
      "type": "function"
    },
    {
      "inputs": [],
      "name": "getTokenNumber",
      "outputs": [
        {
          "internalType": "uint256",
          "name": "",
          "type": "uint256"
        }
      ],
      "stateMutability": "view",
      "type": "function"
    },
    {
      "inputs": [
        {
          "internalType": "address",
          "name": "owner",
          "type": "address"
        },
        {
          "internalType": "address",
          "name": "operator",
          "type": "address"
        }
      ],
      "name": "isApprovedForAll",
      "outputs": [
        {
          "internalType": "bool",
          "name": "",
          "type": "bool"
        }
      ],
      "stateMutability": "view",
      "type": "function"
    },
    {
      "inputs": [
        {
          "internalType": "address",
          "name": "owner",
          "type": "address"
        },
        {
          "internalType": "string",
          "name": "tokenURI",
          "type": "string"
        }
      ],
      "name": "mint",
      "outputs": [],
      "stateMutability": "nonpayable",
      "type": "function"
    },
    {
      "inputs": [],
      "name": "name",
      "outputs": [
        {
          "internalType": "string",
          "name": "",
          "type": "string"
        }
      ],
      "stateMutability": "view",
      "type": "function"
    },
    {
      "inputs": [],
      "name": "owner",
      "outputs": [
        {
          "internalType": "address",
          "name": "",
          "type": "address"
        }
      ],
      "stateMutability": "view",
      "type": "function"
    },
    {
      "inputs": [
        {
          "internalType": "uint256",
          "name": "tokenId",
          "type": "uint256"
        }
      ],
      "name": "ownerOf",
      "outputs": [
        {
          "internalType": "address",
          "name": "",
          "type": "address"
        }
      ],
      "stateMutability": "view",
      "type": "function"
    },
    {
      "inputs": [],
      "name": "renounceOwnership",
      "outputs": [],
      "stateMutability": "nonpayable",
      "type": "function"
    },
    {
      "inputs": [
        {
          "internalType": "address",
          "name": "from",
          "type": "address"
        },
        {
          "internalType": "address",
          "name": "to",
          "type": "address"
        },
        {
          "internalType": "uint256",
          "name": "tokenId",
          "type": "uint256"
        }
      ],
      "name": "safeTransferFrom",
      "outputs": [],
      "stateMutability": "nonpayable",
      "type": "function"
    },
    {
      "inputs": [
        {
          "internalType": "address",
          "name": "from",
          "type": "address"
        },
        {
          "internalType": "address",
          "name": "to",
          "type": "address"
        },
        {
          "internalType": "uint256",
          "name": "tokenId",
          "type": "uint256"
        },
        {
          "internalType": "bytes",
          "name": "data",
          "type": "bytes"
        }
      ],
      "name": "safeTransferFrom",
      "outputs": [],
      "stateMutability": "nonpayable",
      "type": "function"
    },
    {
      "inputs": [
        {
          "internalType": "address",
          "name": "operator",
          "type": "address"
        },
        {
          "internalType": "bool",
          "name": "approved",
          "type": "bool"
        }
      ],
      "name": "setApprovalForAll",
      "outputs": [],
      "stateMutability": "nonpayable",
      "type": "function"
    },
    {
      "inputs": [
        {
          "internalType": "bytes4",
          "name": "interfaceId",
          "type": "bytes4"
        }
      ],
      "name": "supportsInterface",
      "outputs": [
        {
          "internalType": "bool",
          "name": "",
          "type": "bool"
        }
      ],
      "stateMutability": "view",
      "type": "function"
    },
    {
      "inputs": [],
      "name": "symbol",
      "outputs": [
        {
          "internalType": "string",
          "name": "",
          "type": "string"
        }
      ],
      "stateMutability": "view",
      "type": "function"
    },
    {
      "inputs": [
        {
          "internalType": "uint256",
          "name": "index",
          "type": "uint256"
        }
      ],
      "name": "tokenByIndex",
      "outputs": [
        {
          "internalType": "uint256",
          "name": "",
          "type": "uint256"
        }
      ],
      "stateMutability": "view",
      "type": "function"
    },
    {
      "inputs": [],
      "name": "tokenNumber",
      "outputs": [
        {
          "internalType": "uint256",
          "name": "",
          "type": "uint256"
        }
      ],
      "stateMutability": "view",
      "type": "function"
    },
    {
      "inputs": [
        {
          "internalType": "address",
          "name": "owner",
          "type": "address"
        },
        {
          "internalType": "uint256",
          "name": "index",
          "type": "uint256"
        }
      ],
      "name": "tokenOfOwnerByIndex",
      "outputs": [
        {
          "internalType": "uint256",
          "name": "",
          "type": "uint256"
        }
      ],
      "stateMutability": "view",
      "type": "function"
    },
    {
      "inputs": [
        {
          "internalType": "uint256",
          "name": "tokenId",
          "type": "uint256"
        }
      ],
      "name": "tokenURI",
      "outputs": [
        {
          "internalType": "string",
          "name": "",
          "type": "string"
        }
      ],
      "stateMutability": "view",
      "type": "function"
    },
    {
      "inputs": [],
      "name": "totalSupply",
      "outputs": [
        {
          "internalType": "uint256",
          "name": "",
          "type": "uint256"
        }
      ],
      "stateMutability": "view",
      "type": "function"
    },
    {
      "inputs": [
        {
          "internalType": "address",
          "name": "from",
          "type": "address"
        },
        {
          "internalType": "address",
          "name": "to",
          "type": "address"
        },
        {
          "internalType": "uint256",
          "name": "tokenId",
          "type": "uint256"
        }
      ],
      "name": "transferFrom",
      "outputs": [],
      "stateMutability": "nonpayable",
      "type": "function"
    },
    {
      "inputs": [
        {
          "internalType": "address",
          "name": "newOwner",
          "type": "address"
        }
      ],
      "name": "transferOwnership",
      "outputs": [],
      "stateMutability": "nonpayable",
      "type": "function"
    }
  ],
  "bytecode": "0x60806040523480156200001157600080fd5b503360405180604001604052806008815260200167141a1bdb9953999d60c21b815250604051806040016040528060048152602001631413919560e21b8152508160009081620000629190620001b3565b506001620000718282620001b3565b5050506001600160a01b038116620000a357604051631e4fbdf760e01b81526000600482015260240160405180910390fd5b620000ae81620000ba565b506000600c556200027f565b600b80546001600160a01b038381166001600160a01b0319831681179093556040519116919082907f8be0079c531659141344cd1fd0a4f28419497f9722a3daafe3b4186f6b6457e090600090a35050565b634e487b7160e01b600052604160045260246000fd5b600181811c908216806200013757607f821691505b6020821081036200015857634e487b7160e01b600052602260045260246000fd5b50919050565b601f821115620001ae576000816000526020600020601f850160051c81016020861015620001895750805b601f850160051c820191505b81811015620001aa5782815560010162000195565b5050505b505050565b81516001600160401b03811115620001cf57620001cf6200010c565b620001e781620001e0845462000122565b846200015e565b602080601f8311600181146200021f5760008415620002065750858301515b600019600386901b1c1916600185901b178555620001aa565b600085815260208120601f198616915b8281101562000250578886015182559484019460019091019084016200022f565b50858210156200026f5787850151600019600388901b60f8161c191681555b5050505050600190811b01905550565b611eed806200028f6000396000f3fe608060405234801561001057600080fd5b506004361061018d5760003560e01c806370a08231116100e3578063b88d4fde1161008c578063e985e9c511610066578063e985e9c514610328578063f282a8e114610364578063f2fde38b1461036d57600080fd5b8063b88d4fde146102ef578063c87b56dd14610302578063d0def5211461031557600080fd5b806395d89b41116100bd57806395d89b41146102b4578063a22cb465146102bc578063a4292e5b146102cf57600080fd5b806370a0823114610288578063715018a61461029b5780638da5cb5b146102a357600080fd5b806323b872dd116101455780634f6ccce71161011f5780634f6ccce71461025a5780635f5ed5981461026d5780636352211e1461027557600080fd5b806323b872dd146102215780632f745c591461023457806342842e0e1461024757600080fd5b8063081812fc11610176578063081812fc146101cf578063095ea7b3146101fa57806318160ddd1461020f57600080fd5b806301ffc9a71461019257806306fdde03146101ba575b600080fd5b6101a56101a03660046117f2565b610380565b60405190151581526020015b60405180910390f35b6101c2610391565b6040516101b1919061187d565b6101e26101dd366004611890565b610423565b6040516001600160a01b0390911681526020016101b1565b61020d6102083660046118c5565b61044c565b005b6008545b6040519081526020016101b1565b61020d61022f3660046118ef565b61045b565b6102136102423660046118c5565b61051d565b61020d6102553660046118ef565b61059b565b610213610268366004611890565b6105bb565b600c54610213565b6101e2610283366004611890565b61062d565b61021361029636600461192b565b610638565b61020d610699565b600b546001600160a01b03166101e2565b6101c26106ad565b61020d6102ca366004611946565b6106bc565b6102e26102dd36600461192b565b6106c7565b6040516101b19190611982565b61020d6102fd366004611a89565b61075f565b6101c2610310366004611890565b610776565b61020d610323366004611b05565b610781565b6101a5610336366004611b67565b6001600160a01b03918216600090815260056020908152604080832093909416825291909152205460ff1690565b610213600c5481565b61020d61037b36600461192b565b6107f0565b600061038b82610847565b92915050565b6060600080546103a090611b9a565b80601f01602080910402602001604051908101604052809291908181526020018280546103cc90611b9a565b80156104195780601f106103ee57610100808354040283529160200191610419565b820191906000526020600020905b8154815290600101906020018083116103fc57829003601f168201915b5050505050905090565b600061042e8261089d565b506000828152600460205260409020546001600160a01b031661038b565b6104578282336108ef565b5050565b6001600160a01b0382166104a3576040517f64a0ae92000000000000000000000000000000000000000000000000000000008152600060048201526024015b60405180910390fd5b60006104b08383336108fc565b9050836001600160a01b0316816001600160a01b031614610517576040517f64283d7b0000000000000000000000000000000000000000000000000000000081526001600160a01b038086166004830152602482018490528216604482015260640161049a565b50505050565b600061052883610638565b8210610572576040517fa57d13dc0000000000000000000000000000000000000000000000000000000081526001600160a01b03841660048201526024810183905260440161049a565b506001600160a01b03919091166000908152600660209081526040808320938352929052205490565b6105b68383836040518060200160405280600081525061075f565b505050565b60006105c660085490565b8210610608576040517fa57d13dc000000000000000000000000000000000000000000000000000000008152600060048201526024810183905260440161049a565b6008828154811061061b5761061b611bed565b90600052602060002001549050919050565b600061038b8261089d565b60006001600160a01b03821661067d576040517f89c62b640000000000000000000000000000000000000000000000000000000081526000600482015260240161049a565b506001600160a01b031660009081526003602052604090205490565b6106a1610911565b6106ab6000610957565b565b6060600180546103a090611b9a565b6104573383836109c1565b606060006106d483610638565b905060008167ffffffffffffffff8111156106f1576106f16119c6565b60405190808252806020026020018201604052801561071a578160200160208202803683370190505b50905060005b8281101561075757610732858261051d565b82828151811061074457610744611bed565b6020908102919091010152600101610720565b509392505050565b61076a84848461045b565b61051784848484610a97565b606061038b82610c5a565b610789610911565b600c805490600061079983611c4b565b9091555050600c546107ab8382610d63565b6107b58183610d7d565b60405181906001600160a01b038516907f30385c845b448a36257a6a1716e6ad2e1bc2cbe333cde1e69fe849ad6511adfe90600090a3505050565b6107f8610911565b6001600160a01b03811661083b576040517f1e4fbdf70000000000000000000000000000000000000000000000000000000081526000600482015260240161049a565b61084481610957565b50565b60007fffffffff0000000000000000000000000000000000000000000000000000000082167f4906490600000000000000000000000000000000000000000000000000000000148061038b575061038b82610dcd565b6000818152600260205260408120546001600160a01b03168061038b576040517f7e2732890000000000000000000000000000000000000000000000000000000081526004810184905260240161049a565b6105b68383836001610e23565b6000610909848484610f79565b949350505050565b600b546001600160a01b031633146106ab576040517f118cdaa700000000000000000000000000000000000000000000000000000000815233600482015260240161049a565b600b80546001600160a01b038381167fffffffffffffffffffffffff0000000000000000000000000000000000000000831681179093556040519116919082907f8be0079c531659141344cd1fd0a4f28419497f9722a3daafe3b4186f6b6457e090600090a35050565b6001600160a01b038216610a0c576040517f5b08ba180000000000000000000000000000000000000000000000000000000081526001600160a01b038316600482015260240161049a565b6001600160a01b0383811660008181526005602090815260408083209487168084529482529182902080547fffffffffffffffffffffffffffffffffffffffffffffffffffffffffffffff001686151590811790915591519182527f17307eab39ab6107e8899845ad3d59bd9653f200f220920489ca2b5937696c31910160405180910390a3505050565b6001600160a01b0383163b15610517576040517f150b7a020000000000000000000000000000000000000000000000000000000081526001600160a01b0384169063150b7a0290610af2903390889087908790600401611c83565b6020604051808303816000875af1925050508015610b4b575060408051601f3d9081017fffffffffffffffffffffffffffffffffffffffffffffffffffffffffffffffe0168201909252610b4891810190611cbf565b60015b610bcd573d808015610b79576040519150601f19603f3d011682016040523d82523d6000602084013e610b7e565b606091505b508051600003610bc5576040517f64a0ae920000000000000000000000000000000000000000000000000000000081526001600160a01b038516600482015260240161049a565b805181602001fd5b7fffffffff0000000000000000000000000000000000000000000000000000000081167f150b7a020000000000000000000000000000000000000000000000000000000014610c53576040517f64a0ae920000000000000000000000000000000000000000000000000000000081526001600160a01b038516600482015260240161049a565b5050505050565b6060610c658261089d565b506000828152600a602052604081208054610c7f90611b9a565b80601f0160208091040260200160405190810160405280929190818152602001828054610cab90611b9a565b8015610cf85780601f10610ccd57610100808354040283529160200191610cf8565b820191906000526020600020905b815481529060010190602001808311610cdb57829003601f168201915b505050505090506000610d1660408051602081019091526000815290565b90508051600003610d28575092915050565b815115610d5a578082604051602001610d42929190611cdc565b60405160208183030381529060405292505050919050565b61090984611046565b6104578282604051806020016040528060008152506110bb565b6000828152600a60205260409020610d958282611d5b565b506040518281527ff8e1a15aba9398e019f0b49df1a4fde98ee17ae345cb5f6b5e2c27f5033e8ce79060200160405180910390a15050565b60007fffffffff0000000000000000000000000000000000000000000000000000000082167f780e9d6300000000000000000000000000000000000000000000000000000000148061038b575061038b826110d2565b8080610e3757506001600160a01b03821615155b15610f31576000610e478461089d565b90506001600160a01b03831615801590610e735750826001600160a01b0316816001600160a01b031614155b8015610ea557506001600160a01b0380821660009081526005602090815260408083209387168352929052205460ff16155b15610ee7576040517fa9fbf51f0000000000000000000000000000000000000000000000000000000081526001600160a01b038416600482015260240161049a565b8115610f2f5783856001600160a01b0316826001600160a01b03167f8c5be1e5ebec7d5bd14f71427d1e84f3dd0314c0f7b2291e5b200ac8c7c3b92560405160405180910390a45b505b5050600090815260046020526040902080547fffffffffffffffffffffffff0000000000000000000000000000000000000000166001600160a01b0392909216919091179055565b600080610f878585856111b5565b90506001600160a01b038116610fe457610fdf84600880546000838152600960205260408120829055600182018355919091527ff3f7a9fe364faab93b216da50a3214154f22a0a2b415b23a84c8169e8b636ee30155565b611007565b846001600160a01b0316816001600160a01b0316146110075761100781856112e4565b6001600160a01b0385166110235761101e84611375565b610909565b846001600160a01b0316816001600160a01b031614610909576109098585611424565b60606110518261089d565b50600061106960408051602081019091526000815290565b9050600081511161108957604051806020016040528060008152506110b4565b8061109384611474565b6040516020016110a4929190611cdc565b6040516020818303038152906040525b9392505050565b6110c58383611532565b6105b66000848484610a97565b60007fffffffff0000000000000000000000000000000000000000000000000000000082167f80ac58cd00000000000000000000000000000000000000000000000000000000148061116557507fffffffff0000000000000000000000000000000000000000000000000000000082167f5b5e139f00000000000000000000000000000000000000000000000000000000145b8061038b57507f01ffc9a7000000000000000000000000000000000000000000000000000000007fffffffff0000000000000000000000000000000000000000000000000000000083161461038b565b6000828152600260205260408120546001600160a01b03908116908316156111e2576111e28184866115c9565b6001600160a01b0381161561123e576111ff600085600080610e23565b6001600160a01b038116600090815260036020526040902080547fffffffffffffffffffffffffffffffffffffffffffffffffffffffffffffffff0190555b6001600160a01b0385161561126d576001600160a01b0385166000908152600360205260409020805460010190555b60008481526002602052604080822080547fffffffffffffffffffffffff0000000000000000000000000000000000000000166001600160a01b0389811691821790925591518793918516917fddf252ad1be2c89b69c2b068fc378daa952ba7f163c4a11628f55a4df523b3ef91a4949350505050565b60006112ef83610638565b600083815260076020526040902054909150808214611342576001600160a01b03841660009081526006602090815260408083208584528252808320548484528184208190558352600790915290208190555b5060009182526007602090815260408084208490556001600160a01b039094168352600681528383209183525290812055565b60085460009061138790600190611e75565b600083815260096020526040812054600880549394509092849081106113af576113af611bed565b9060005260206000200154905080600883815481106113d0576113d0611bed565b600091825260208083209091019290925582815260099091526040808220849055858252812055600880548061140857611408611e88565b6001900381819060005260206000200160009055905550505050565b6000600161143184610638565b61143b9190611e75565b6001600160a01b039093166000908152600660209081526040808320868452825280832085905593825260079052919091209190915550565b606060006114818361165f565b600101905060008167ffffffffffffffff8111156114a1576114a16119c6565b6040519080825280601f01601f1916602001820160405280156114cb576020820181803683370190505b5090508181016020015b7fffffffffffffffffffffffffffffffffffffffffffffffffffffffffffffffff017f3031323334353637383961626364656600000000000000000000000000000000600a86061a8153600a85049450846114d557509392505050565b6001600160a01b038216611575576040517f64a0ae920000000000000000000000000000000000000000000000000000000081526000600482015260240161049a565b6000611583838360006108fc565b90506001600160a01b038116156105b6576040517f73c6ac6e0000000000000000000000000000000000000000000000000000000081526000600482015260240161049a565b6115d4838383611741565b6105b6576001600160a01b03831661161b576040517f7e2732890000000000000000000000000000000000000000000000000000000081526004810182905260240161049a565b6040517f177e802f0000000000000000000000000000000000000000000000000000000081526001600160a01b03831660048201526024810182905260440161049a565b6000807a184f03e93ff9f4daa797ed6e38ed64bf6a1f01000000000000000083106116a8577a184f03e93ff9f4daa797ed6e38ed64bf6a1f010000000000000000830492506040015b6d04ee2d6d415b85acef810000000083106116d4576d04ee2d6d415b85acef8100000000830492506020015b662386f26fc1000083106116f257662386f26fc10000830492506010015b6305f5e100831061170a576305f5e100830492506008015b612710831061171e57612710830492506004015b60648310611730576064830492506002015b600a831061038b5760010192915050565b60006001600160a01b038316158015906109095750826001600160a01b0316846001600160a01b0316148061179b57506001600160a01b0380851660009081526005602090815260408083209387168352929052205460ff165b806109095750506000908152600460205260409020546001600160a01b03908116911614919050565b7fffffffff000000000000000000000000000000000000000000000000000000008116811461084457600080fd5b60006020828403121561180457600080fd5b81356110b4816117c4565b60005b8381101561182a578181015183820152602001611812565b50506000910152565b6000815180845261184b81602086016020860161180f565b601f017fffffffffffffffffffffffffffffffffffffffffffffffffffffffffffffffe0169290920160200192915050565b6020815260006110b46020830184611833565b6000602082840312156118a257600080fd5b5035919050565b80356001600160a01b03811681146118c057600080fd5b919050565b600080604083850312156118d857600080fd5b6118e1836118a9565b946020939093013593505050565b60008060006060848603121561190457600080fd5b61190d846118a9565b925061191b602085016118a9565b9150604084013590509250925092565b60006020828403121561193d57600080fd5b6110b4826118a9565b6000806040838503121561195957600080fd5b611962836118a9565b91506020830135801515811461197757600080fd5b809150509250929050565b6020808252825182820181905260009190848201906040850190845b818110156119ba5783518352928401929184019160010161199e565b50909695505050505050565b7f4e487b7100000000000000000000000000000000000000000000000000000000600052604160045260246000fd5b600067ffffffffffffffff80841115611a1057611a106119c6565b604051601f85017fffffffffffffffffffffffffffffffffffffffffffffffffffffffffffffffe0908116603f01168101908282118183101715611a5657611a566119c6565b81604052809350858152868686011115611a6f57600080fd5b858560208301376000602087830101525050509392505050565b60008060008060808587031215611a9f57600080fd5b611aa8856118a9565b9350611ab6602086016118a9565b925060408501359150606085013567ffffffffffffffff811115611ad957600080fd5b8501601f81018713611aea57600080fd5b611af9878235602084016119f5565b91505092959194509250565b60008060408385031215611b1857600080fd5b611b21836118a9565b9150602083013567ffffffffffffffff811115611b3d57600080fd5b8301601f81018513611b4e57600080fd5b611b5d858235602084016119f5565b9150509250929050565b60008060408385031215611b7a57600080fd5b611b83836118a9565b9150611b91602084016118a9565b90509250929050565b600181811c90821680611bae57607f821691505b602082108103611be7577f4e487b7100000000000000000000000000000000000000000000000000000000600052602260045260246000fd5b50919050565b7f4e487b7100000000000000000000000000000000000000000000000000000000600052603260045260246000fd5b7f4e487b7100000000000000000000000000000000000000000000000000000000600052601160045260246000fd5b60007fffffffffffffffffffffffffffffffffffffffffffffffffffffffffffffffff8203611c7c57611c7c611c1c565b5060010190565b60006001600160a01b03808716835280861660208401525083604083015260806060830152611cb56080830184611833565b9695505050505050565b600060208284031215611cd157600080fd5b81516110b4816117c4565b60008351611cee81846020880161180f565b835190830190611d0281836020880161180f565b01949350505050565b601f8211156105b6576000816000526020600020601f850160051c81016020861015611d345750805b601f850160051c820191505b81811015611d5357828155600101611d40565b505050505050565b815167ffffffffffffffff811115611d7557611d756119c6565b611d8981611d838454611b9a565b84611d0b565b602080601f831160018114611ddc5760008415611da65750858301515b7fffffffffffffffffffffffffffffffffffffffffffffffffffffffffffffffff600386901b1c1916600185901b178555611d53565b6000858152602081207fffffffffffffffffffffffffffffffffffffffffffffffffffffffffffffffe08616915b82811015611e2957888601518255948401946001909101908401611e0a565b5085821015611e6557878501517fffffffffffffffffffffffffffffffffffffffffffffffffffffffffffffffff600388901b60f8161c191681555b5050505050600190811b01905550565b8181038181111561038b5761038b611c1c565b7f4e487b7100000000000000000000000000000000000000000000000000000000600052603160045260246000fdfea26469706673582212208dd5da7411f1719b80d85966faeed9a9b789867267eaf439e5e5cab459d7855364736f6c63430008180033",
  "linkReferences": {},
  "deployedLinkReferences": {}
}