{
  "_format": "hh-sol-artifact-1",
  "contractName": "PhoneMarket",
  "sourceName": "contracts/PhoneMarketplace.sol",
  "abi": [
    {
      "inputs": [
        {
          "internalType": "address",
          "name": "_phoneCoin",
          "type": "address"
        },
        {
          "internalType": "address",
          "name": "_phoneNft",
          "type": "address"
        }
      ],
      "stateMutability": "nonpayable",
      "type": "constructor"
    },
    {
      "inputs": [
        {
          "internalType": "address",
          "name": "owner",
          "type": "address"
        }
      ],
      "name": "OwnableInvalidOwner",
      "type": "error"
    },
    {
      "inputs": [
        {
          "internalType": "address",
          "name": "account",
          "type": "address"
        }
      ],
      "name": "OwnableUnauthorizedAccount",
      "type": "error"
    },
    {
      "anonymous": false,
      "inputs": [
        {
          "indexed": true,
          "internalType": "address",
          "name": "previousOwner",
          "type": "address"
        },
        {
          "indexed": true,
          "internalType": "address",
          "name": "newOwner",
          "type": "address"
        }
      ],
      "name": "OwnershipTransferred",
      "type": "event"
    },
    {
      "anonymous": false,
      "inputs": [
        {
          "indexed": true,
          "internalType": "uint256",
          "name": "tokenId",
          "type": "uint256"
        },
        {
          "indexed": false,
          "internalType": "uint256",
          "name": "price",
          "type": "uint256"
        },
        {
          "indexed": true,
          "internalType": "address",
          "name": "seller",
          "type": "address"
        }
      ],
      "name": "PhoneListed",
      "type": "event"
    },
    {
      "anonymous": false,
      "inputs": [
        {
          "indexed": true,
          "internalType": "uint256",
          "name": "tokenId",
          "type": "uint256"
        },
        {
          "indexed": false,
          "internalType": "uint256",
          "name": "price",
          "type": "uint256"
        },
        {
          "indexed": true,
          "internalType": "address",
          "name": "seller",
          "type": "address"
        },
        {
          "indexed": true,
          "internalType": "address",
          "name": "buyer",
          "type": "address"
        }
      ],
      "name": "PhoneSold",
      "type": "event"
    },
    {
      "anonymous": false,
      "inputs": [
        {
          "indexed": true,
          "internalType": "uint256",
          "name": "tokenId",
          "type": "uint256"
        },
        {
          "indexed": true,
          "internalType": "address",
          "name": "seller",
          "type": "address"
        }
      ],
      "name": "PhoneUnlisted",
      "type": "event"
    },
    {
      "inputs": [],
      "name": "FEE",
      "outputs": [
        {
          "internalType": "uint256",
          "name": "",
          "type": "uint256"
        }
      ],
      "stateMutability": "view",
      "type": "function"
    },
    {
      "inputs": [
        {
          "internalType": "uint256",
          "name": "_tokenId",
          "type": "uint256"
        }
      ],
      "name": "buyPhone",
      "outputs": [],
      "stateMutability": "nonpayable",
      "type": "function"
    },
    {
      "inputs": [],
      "name": "getPhoneListings",
      "outputs": [
        {
          "components": [
            {
              "internalType": "uint256",
              "name": "tokenId",
              "type": "uint256"
            },
            {
              "internalType": "uint256",
              "name": "price",
              "type": "uint256"
            },
            {
              "internalType": "uint256",
              "name": "fee",
              "type": "uint256"
            },
            {
              "internalType": "address",
              "name": "seller",
              "type": "address"
            }
          ],
          "internalType": "struct PhoneMarket.PhoneListing[]",
          "name": "",
          "type": "tuple[]"
        }
      ],
      "stateMutability": "view",
      "type": "function"
    },
    {
      "inputs": [
        {
          "internalType": "uint256",
          "name": "_tokenId",
          "type": "uint256"
        },
        {
          "internalType": "uint256",
          "name": "_price",
          "type": "uint256"
        }
      ],
      "name": "listPhone",
      "outputs": [],
      "stateMutability": "nonpayable",
      "type": "function"
    },
    {
      "inputs": [
        {
          "internalType": "address",
          "name": "operator",
          "type": "address"
        },
        {
          "internalType": "address",
          "name": "from",
          "type": "address"
        },
        {
          "internalType": "uint256",
          "name": "tokenId",
          "type": "uint256"
        },
        {
          "internalType": "bytes",
          "name": "data",
          "type": "bytes"
        }
      ],
      "name": "onERC721Received",
      "outputs": [
        {
          "internalType": "bytes4",
          "name": "",
          "type": "bytes4"
        }
      ],
      "stateMutability": "nonpayable",
      "type": "function"
    },
    {
      "inputs": [],
      "name": "owner",
      "outputs": [
        {
          "internalType": "address",
          "name": "",
          "type": "address"
        }
      ],
      "stateMutability": "view",
      "type": "function"
    },
    {
      "inputs": [],
      "name": "phoneCoin",
      "outputs": [
        {
          "internalType": "contract PhoneCoin",
          "name": "",
          "type": "address"
        }
      ],
      "stateMutability": "view",
      "type": "function"
    },
    {
      "inputs": [
        {
          "internalType": "uint256",
          "name": "",
          "type": "uint256"
        }
      ],
      "name": "phoneListings",
      "outputs": [
        {
          "internalType": "uint256",
          "name": "tokenId",
          "type": "uint256"
        },
        {
          "internalType": "uint256",
          "name": "price",
          "type": "uint256"
        },
        {
          "internalType": "uint256",
          "name": "fee",
          "type": "uint256"
        },
        {
          "internalType": "address",
          "name": "seller",
          "type": "address"
        }
      ],
      "stateMutability": "view",
      "type": "function"
    },
    {
      "inputs": [],
      "name": "phoneNft",
      "outputs": [
        {
          "internalType": "contract PhoneNft",
          "name": "",
          "type": "address"
        }
      ],
      "stateMutability": "view",
      "type": "function"
    },
    {
      "inputs": [],
      "name": "renounceOwnership",
      "outputs": [],
      "stateMutability": "nonpayable",
      "type": "function"
    },
    {
      "inputs": [
        {
          "internalType": "address",
          "name": "newOwner",
          "type": "address"
        }
      ],
      "name": "transferOwnership",
      "outputs": [],
      "stateMutability": "nonpayable",
      "type": "function"
    },
    {
      "inputs": [
        {
          "internalType": "uint256",
          "name": "_tokenId",
          "type": "uint256"
        }
      ],
      "name": "unlistphone",
      "outputs": [],
      "stateMutability": "nonpayable",
      "type": "function"
    },
    {
      "inputs": [],
      "name": "withdrawPhoneCoin",
      "outputs": [],
      "stateMutability": "nonpayable",
      "type": "function"
    }
  ],
  "bytecode": "0x60806040523480156200001157600080fd5b506040516200186338038062001863833981016040819052620000349162000106565b33806200005b57604051631e4fbdf760e01b81526000600482015260240160405180910390fd5b620000668162000099565b50600180546001600160a01b039384166001600160a01b031991821617909155600280549290931691161790556200013e565b600080546001600160a01b038381166001600160a01b0319831681178455604051919092169283917f8be0079c531659141344cd1fd0a4f28419497f9722a3daafe3b4186f6b6457e09190a35050565b80516001600160a01b03811681146200010157600080fd5b919050565b600080604083850312156200011a57600080fd5b6200012583620000e9565b91506200013560208401620000e9565b90509250929050565b611715806200014e6000396000f3fe608060405234801561001057600080fd5b50600436106100df5760003560e01c8063715018a61161008c578063bacca2ea11610066578063bacca2ea14610222578063c57981b514610235578063f2fde38b1461024b578063f6eab61b1461025e57600080fd5b8063715018a6146101e95780638da5cb5b146101f1578063b8ba30731461020f57600080fd5b80633276ebb1116100bd5780633276ebb1146101ac5780635f772d32146101b45780635ff5eeba146101d457600080fd5b8063150b7a02146100e45780631787ddd8146101525780632b12096a14610197575b600080fd5b61011c6100f23660046113df565b7f150b7a020000000000000000000000000000000000000000000000000000000095945050505050565b6040517fffffffff0000000000000000000000000000000000000000000000000000000090911681526020015b60405180910390f35b6001546101729073ffffffffffffffffffffffffffffffffffffffff1681565b60405173ffffffffffffffffffffffffffffffffffffffff9091168152602001610149565b6101aa6101a536600461147e565b6102e1565b005b6101aa610759565b6002546101729073ffffffffffffffffffffffffffffffffffffffff1681565b6101dc610894565b60405161014991906114a0565b6101aa610b63565b60005473ffffffffffffffffffffffffffffffffffffffff16610172565b6101aa61021d36600461151a565b610b77565b6101aa61023036600461151a565b610d37565b61023d600281565b604051908152602001610149565b6101aa610259366004611533565b611294565b6102ab61026c36600461151a565b600360208190526000918252604090912080546001820154600283015492909301549092919073ffffffffffffffffffffffffffffffffffffffff1684565b6040805194855260208501939093529183015273ffffffffffffffffffffffffffffffffffffffff166060820152608001610149565b6002546040517f6352211e0000000000000000000000000000000000000000000000000000000081526004810184905283918391339173ffffffffffffffffffffffffffffffffffffffff1690636352211e90602401602060405180830381865afa158015610354573d6000803e3d6000fd5b505050506040513d601f19601f820116820180604052508101906103789190611557565b73ffffffffffffffffffffffffffffffffffffffff161461041f576040517f08c379a0000000000000000000000000000000000000000000000000000000008152602060048201526024808201527f43616c6c6572206973206e6f7420746865206f776e6572206f6620746865207060448201527f686f6e650000000000000000000000000000000000000000000000000000000060648201526084015b60405180910390fd5b6000828152600360208190526040909120015473ffffffffffffffffffffffffffffffffffffffff16156104af576040517f08c379a000000000000000000000000000000000000000000000000000000000815260206004820152601760248201527f50686f6e6520697320616c7265616479206c69737465640000000000000000006044820152606401610416565b6002546040517f081812fc00000000000000000000000000000000000000000000000000000000815260048101849052309173ffffffffffffffffffffffffffffffffffffffff169063081812fc90602401602060405180830381865afa15801561051e573d6000803e3d6000fd5b505050506040513d601f19601f820116820180604052508101906105429190611557565b73ffffffffffffffffffffffffffffffffffffffff16146105e5576040517f08c379a000000000000000000000000000000000000000000000000000000000815260206004820152602e60248201527f436f6e7472616374206973206e6f7420617070726f76656420746f207472616e60448201527f73666572207468652070686f6e650000000000000000000000000000000000006064820152608401610416565b6002546040517f42842e0e0000000000000000000000000000000000000000000000000000000081523360048201523060248201526044810186905273ffffffffffffffffffffffffffffffffffffffff909116906342842e0e90606401600060405180830381600087803b15801561065d57600080fd5b505af1158015610671573d6000803e3d6000fd5b505050506040518060800160405280858152602001848152602001606460028661069b91906115a3565b6106a591906115c0565b81523360209182018190526000878152600380845260409182902085518155858501516001820155858301516002820155606090950151940180547fffffffffffffffffffffffff00000000000000000000000000000000000000001673ffffffffffffffffffffffffffffffffffffffff90951694909417909355915185815286917febdc1d8a53cccc5ba48efa44c2be50e8ce6983e54c47bf346b92429f4e3b5737910160405180910390a350505050565b6107616112f5565b6001546040517f70a0823100000000000000000000000000000000000000000000000000000000815230600482015273ffffffffffffffffffffffffffffffffffffffff9091169063a9059cbb90339083906370a0823190602401602060405180830381865afa1580156107d9573d6000803e3d6000fd5b505050506040513d601f19601f820116820180604052508101906107fd91906115fb565b6040517fffffffff0000000000000000000000000000000000000000000000000000000060e085901b16815273ffffffffffffffffffffffffffffffffffffffff909216600483015260248201526044016020604051808303816000875af115801561086d573d6000803e3d6000fd5b505050506040513d601f19601f820116820180604052508101906108919190611614565b50565b60606000600260009054906101000a900473ffffffffffffffffffffffffffffffffffffffff1673ffffffffffffffffffffffffffffffffffffffff16635f5ed5986040518163ffffffff1660e01b8152600401602060405180830381865afa158015610905573d6000803e3d6000fd5b505050506040513d601f19601f8201168201806040525081019061092991906115fb565b90506000808267ffffffffffffffff81111561094757610947611636565b6040519080825280602002602001820160405280156109b957816020015b6109a66040518060800160405280600081526020016000815260200160008152602001600073ffffffffffffffffffffffffffffffffffffffff1681525090565b8152602001906001900390816109655790505b50905060015b83811015610a7f576000818152600360208190526040909120015473ffffffffffffffffffffffffffffffffffffffff1615610a775760008181526003602081815260409283902083516080810185528154815260018201549281019290925260028101549382019390935291015473ffffffffffffffffffffffffffffffffffffffff1660608201528251839085908110610a5d57610a5d611665565b60200260200101819052508280610a7390611694565b9350505b6001016109bf565b5060008267ffffffffffffffff811115610a9b57610a9b611636565b604051908082528060200260200182016040528015610b0d57816020015b610afa6040518060800160405280600081526020016000815260200160008152602001600073ffffffffffffffffffffffffffffffffffffffff1681525090565b815260200190600190039081610ab95790505b50905060005b83811015610b5a57828181518110610b2d57610b2d611665565b6020026020010151828281518110610b4757610b47611665565b6020908102919091010152600101610b13565b50949350505050565b610b6b6112f5565b610b756000611348565b565b60008181526003602081905260409091200154819073ffffffffffffffffffffffffffffffffffffffff163314610c30576040517f08c379a000000000000000000000000000000000000000000000000000000000815260206004820152602560248201527f43616c6c6572206973206e6f74207468652073656c6c6572206f66207468652060448201527f70686f6e650000000000000000000000000000000000000000000000000000006064820152608401610416565b6002546040517f42842e0e0000000000000000000000000000000000000000000000000000000081523060048201523360248201526044810184905273ffffffffffffffffffffffffffffffffffffffff909116906342842e0e90606401600060405180830381600087803b158015610ca857600080fd5b505af1158015610cbc573d6000803e3d6000fd5b5050506000838152600360208190526040808320838155600181018490556002810184905590910180547fffffffffffffffffffffffff00000000000000000000000000000000000000001690555133925084917f65979f3bf525b968675a3bd6bed9b4f0457fbe59a7d3053c9617b3d8852ea51691a35050565b6000818152600360208190526040909120015481903373ffffffffffffffffffffffffffffffffffffffff90911603610df2576040517f08c379a000000000000000000000000000000000000000000000000000000000815260206004820152602160248201527f43616c6c6572206973207468652073656c6c6572206f66207468652070686f6e60448201527f65000000000000000000000000000000000000000000000000000000000000006064820152608401610416565b6000818152600360208190526040909120015473ffffffffffffffffffffffffffffffffffffffff16610e81576040517f08c379a000000000000000000000000000000000000000000000000000000000815260206004820152601360248201527f50686f6e65206973206e6f74206c6973746564000000000000000000000000006044820152606401610416565b60008181526003602052604090206001810154600290910154610ea481836116cc565b6001546040517fdd62ed3e00000000000000000000000000000000000000000000000000000000815233600482015230602482015273ffffffffffffffffffffffffffffffffffffffff9091169063dd62ed3e90604401602060405180830381865afa158015610f18573d6000803e3d6000fd5b505050506040513d601f19601f82011682018060405250810190610f3c91906115fb565b1015610fca576040517f08c379a000000000000000000000000000000000000000000000000000000000815260206004820152602e60248201527f436f6e7472616374206973206e6f7420617070726f76656420746f207472616e60448201527f73666572207468652066756e64730000000000000000000000000000000000006064820152608401610416565b600084815260036020818152604092839020835160808101855281548152600180830154938201939093526002820154818601819052919093015473ffffffffffffffffffffffffffffffffffffffff9081166060850152915493517f23b872dd0000000000000000000000000000000000000000000000000000000081523360048201523060248201526044810191909152919216906323b872dd906064016020604051808303816000875af1158015611089573d6000803e3d6000fd5b505050506040513d601f19601f820116820180604052508101906110ad9190611614565b50600154606082015160208301516040517f23b872dd00000000000000000000000000000000000000000000000000000000815233600482015273ffffffffffffffffffffffffffffffffffffffff928316602482015260448101919091529116906323b872dd906064016020604051808303816000875af1158015611137573d6000803e3d6000fd5b505050506040513d601f19601f8201168201806040525081019061115b9190611614565b506002546040517f42842e0e0000000000000000000000000000000000000000000000000000000081523060048201523360248201526044810187905273ffffffffffffffffffffffffffffffffffffffff909116906342842e0e90606401600060405180830381600087803b1580156111d457600080fd5b505af11580156111e8573d6000803e3d6000fd5b50505060008681526003602081815260408084208481556001810185905560028101949094559290910180547fffffffffffffffffffffffff0000000000000000000000000000000000000000169055606084015184820151925192835233935073ffffffffffffffffffffffffffffffffffffffff169188917f75e48759649adc885b3290470461b07a849c2e6648ddf01c348b950afd70de58910160405180910390a45050505050565b61129c6112f5565b73ffffffffffffffffffffffffffffffffffffffff81166112ec576040517f1e4fbdf700000000000000000000000000000000000000000000000000000000815260006004820152602401610416565b61089181611348565b60005473ffffffffffffffffffffffffffffffffffffffff163314610b75576040517f118cdaa7000000000000000000000000000000000000000000000000000000008152336004820152602401610416565b6000805473ffffffffffffffffffffffffffffffffffffffff8381167fffffffffffffffffffffffff0000000000000000000000000000000000000000831681178455604051919092169283917f8be0079c531659141344cd1fd0a4f28419497f9722a3daafe3b4186f6b6457e09190a35050565b73ffffffffffffffffffffffffffffffffffffffff8116811461089157600080fd5b6000806000806000608086880312156113f757600080fd5b8535611402816113bd565b94506020860135611412816113bd565b935060408601359250606086013567ffffffffffffffff8082111561143657600080fd5b818801915088601f83011261144a57600080fd5b81358181111561145957600080fd5b89602082850101111561146b57600080fd5b9699959850939650602001949392505050565b6000806040838503121561149157600080fd5b50508035926020909101359150565b602080825282518282018190526000919060409081850190868401855b8281101561150d578151805185528681015187860152858101518686015260609081015173ffffffffffffffffffffffffffffffffffffffff1690850152608090930192908501906001016114bd565b5091979650505050505050565b60006020828403121561152c57600080fd5b5035919050565b60006020828403121561154557600080fd5b8135611550816113bd565b9392505050565b60006020828403121561156957600080fd5b8151611550816113bd565b7f4e487b7100000000000000000000000000000000000000000000000000000000600052601160045260246000fd5b80820281158282048414176115ba576115ba611574565b92915050565b6000826115f6577f4e487b7100000000000000000000000000000000000000000000000000000000600052601260045260246000fd5b500490565b60006020828403121561160d57600080fd5b5051919050565b60006020828403121561162657600080fd5b8151801515811461155057600080fd5b7f4e487b7100000000000000000000000000000000000000000000000000000000600052604160045260246000fd5b7f4e487b7100000000000000000000000000000000000000000000000000000000600052603260045260246000fd5b60007fffffffffffffffffffffffffffffffffffffffffffffffffffffffffffffffff82036116c5576116c5611574565b5060010190565b808201808211156115ba576115ba61157456fea2646970667358221220b0143b7dd7152ec4a6e3fc30d51cee9b0e694cf2ffdbe37f1b0b728a6281af2764736f6c63430008180033",
  "linkReferences": {},
  "deployedLinkReferences": {}
}